S00F0000726164696E686F2E7372656330
S11300000C9434000C943E000C943E000C943E007E
S11300100C943E000C943E000C943E000C943E0064
S11300200C943E000C943E000C943E000C943E0054
S11300300C943E000C943E000C943E000C943E0044
S11300400C943E000C943E000C943E000C943E0034
S11300500C943E000C943E000C943E000C943E0024
S11300600C943E000C943E0011241FBECFEFD8E048
S1130070DEBFCDBF0E9440000C9458020C940000D7
S1130080CF93DF93CDB7DEB76C970FB6F894DEBF8E
S11300900FBECDBF84E290E020E2FC01208385E224
S11300A090E020E2FC01208380E090E0AAE7B3E442
S11300B089839A83AB83BC8320E030E04AEF54E425
S11300C069817A818B819C810E94C301DC01CB010F
S11300D08B8B9C8BAD8BBE8B20E030E040E85FE3E4
S11300E06B897C898D899E890E943D0188232CF42B
S11300F081E090E0988F8F8B3FC020E03FEF4FE787
S113010057E46B897C898D899E890E94BE011816EB
S11301104CF520E030E040E251E469817A818B8142
S11301209C810E94C301DC01CB01BC01CD010E9472
S11301304201DC01CB01988F8F8B0FC088EC90E0DB
S11301409A8F898F898D9A8D0197F1F79A8F898F6C
S11301508F89988D0197988F8F8B8F89988D892B94
S113016069F714C06B897C898D899E890E9442013C
S1130170DC01CB01988F8F8B8F89988D9C8F8B8F0F
S11301808B8D9C8D0197F1F79C8F8B8F85E290E08E
S1130190FC01108280E090E0AAE7B3E48D839E83A3
S11301A0AF83B88720E030E04AEF54E46D817E816C
S11301B08F8198850E94C301DC01CB0189879A87CE
S11301C0AB87BC8720E030E040E85FE369857A854F
S11301D08B859C850E943D0188232CF481E090E06E
S11301E09E878D873FC020E03FEF4FE757E4698546
S11301F07A858B859C850E94BE0118164CF520E0FB
S113020030E040E251E46D817E818F8198850E94C7
S1130210C301DC01CB01BC01CD010E944201DC0120
S1130220CB019E878D870FC088EC90E0988B8F87D9
S11302308F8598890197F1F7988B8F878D859E8597
S113024001979E878D878D859E85892B69F714C0BC
S113025069857A858B859C850E944201DC01CB01EE
S11302609E878D878D859E859A8B898B89899A89AE
S11302700197F1F79A8B898B12CF0E94710108F4D0
S113028081E008950E949D0188F09F5798F0B92F4E
S11302909927B751B0F0E1F0660F771F881F991FB7
S11302A01AF0BA95C9F714C0B13091F00E94B701A1
S11302B0B1E008950C94B701672F782F8827B85FB1
S11302C039F0B93FCCF3869577956795B395D9F70F
S11302D03EF490958095709561957F4F8F4F9F4F19
S11302E00895990F0008550FAA0BE0E8FEEF1616C3
S11302F01706E807F907C0F012161306E407F50716
S113030098F0621B730B840B950B39F40A2661F089
S1130310232B242B252B21F408950A2609F4A1402C
S1130320A6958FEF811D811D089557FD9058440FA8
S1130330551F59F05F3F71F04795880F97FB991F40
S113034061F09F3F79F087950895121613061406FD
S1130350551FF2CF4695F1DF08C01616170618068A
S1130360991FF1CF86957105610508940895E89465
S1130370BB2766277727CB0197F908950E9471015F
S113038008F48FEF08950E94D6010C9447020E944E
S1130390390238F00E94400220F0952311F00C94A9
S11303A030020C94360211240C94B8010E94950179
S11303B070F3959FC1F3950F50E0551F629FF001B4
S11303C0729FBB27F00DB11D639FAA27F00DB11DCD
S11303D0AA1F649F6627B00DA11D661F829F222756
S11303E0B00DA11D621F739FB00DA11D621F839FDD
S11303F0A00D611D221F749F3327A00D611D231FB3
S1130400849F600D211D822F762F6A2F11249F5700
S113041050409AF0F1F088234AF0EE0FFF1FBB1F03
S1130420661F771F881F91505040A9F79E3F5105C2
S113043080F00C9430020C94B8015F3FE4F3983ED2
S1130440D4F3869577956795B795F795E7959F5F6C
S1130450C1F7FE2B880F911D9695879597F90895FE
S113046097F99F6780E870E060E008959FEF80EC63
S1130470089500240A941616170618060906089506
S113048000240A9412161306140605060895092E6C
S11304900394000C11F4882352F0BB0F40F4BF2BDB
S11304A011F460FF04C06F5F7F4F8F4F9F4F08951B
S10704B0F894FFCFEA
S9030000FC
